:020000022000DC
:1000000021A00100010001008140814101428142A3
:1000100001438143014481440145814501468146B4
:10002000014781470148814801498149014A814A84
:10003000014B814B014C814C014D814D014E814E54
:10004000014F814F1781FF3F1301C1FBA522AA82F7
:1000500001A00000000000000000000000000000FF
:100060000000000000000000000000000000000090
:100070000000000000000000000000000000000080
:1000800039713ECCB7070650DC433ACE06DEED832D
:1000900016DC1ADA1ED82AD62ED432D236D042CA6C
:1000A00046C872C676C47AC27EC08D8B0D47638403
:1000B000E70099E301A001A0130550043D211305B9
:1000C0006006252101A000000000000000000000E3
:1000D0000000000000000000000000000000000020
:1000E0000000000000000000000000000000000010
:1000F000000000000000B7B755853707065093870A
:1001000017AA1CC35C439397A7499397D749939722
:1001100097295CC323200700828037B75585B7072E
:100120000650130717AA98C3D843B70600C4FD1694
:10013000758F6E05B7060018758D598DC8C323A03D
:100140000700828002855C41F99BF59B5CC11C4DD8
:10015000F99BF59B1CCD1C45C19B1CC55C4593E7D9
:1001600037005CC51C4993E737001CC982805C4599
:10017000F99BF59B5CC51C49F99BF59B1CC98280CA
:100180000100010001000100010001000100010067
:100190000100010001000100010001000100010057
:1001A0000100010001000100010001000100010047
:1001B00001008280411126C2B7040250DC4C22C4E7
:1001C00006C6B70502009397C72893850508DCCCBF
:1001D0001305000C5923370406505C401397670041
:1001E0006356070240406D800D88E5288D47630106
:1001F000F40C631A040C0137370702505C4F3705C3
:1002000000109397C7485CCF353F01A0DC4C370501
:1002100009509397B72893972729DCCC2D37D12005
:10022000B78705509843C976FD16758F98C39843D4
:100230001367470098C398431317474998C39843D7
:100240001317474998C3944398436D9B98C3DC4C5C
:100250009397B748DCCC9397B60063D90704B7B738
:100260005585938717AA1CC0444093F7F4FF9397D2
:10027000A7499397D74993E747005CC01137B70761
:1002800000DCED17FD8C44C023200400B7070950A3
:10029000370509508043E13D370702505C4F0D8818
:1002A0002285939727495CCF8D3D89B7D13DF9BF12
:1002B0009935370702505C4F370500409397C74880
:1002C0005CCF493599B7B7070250D8471377F7EF96
:1002D0001377F7DFD8C7D84F13678700D8CF4524E7
:1002E0002DB7370702505C4F93E787005CCFB78785
:1002F00001509C4F544F93F7C73FDD9A54CF1307DB
:10030000C0356387E700130740366384E70C8280BB
:100310003747020081478146130707BE5146B305A0
:10032000F70083C505008507AE96E39AC7FE8347AD
:100330004701034557018345670103467701AA97A3
:10034000AE97B29737060250B697544E93F7F70F11
:1003500093E6061054CE37B65585130616AAB7068F
:10036000065090C2834587013786E0FF7D16639370
:10037000F5049C46B7851F007D8E83474701BE0765
:10038000ED8FD18F9CC637060450145A834757010E
:1003900093F616FC860793F7E703D58F1CDAB707A9
:1003A000065023A00700370702505C4F93F7F7EF82
:1003B0005CCF82809C4637871500F18FD98F9CC611
:1003C000370704501C5B93F717FC93E787001CDB8F
:1003D000F9B7374702008147814601175146B305F7
:1003E000F70083C505008507AE96E39AC7FE8347ED
:1003F0004701034557018345670103467701AA97E3
:10040000AE97B29737060250B697544E93F7F70F50
:1004100093E6061054CE37B65585130616AAB706CE
:10042000065090C2834587013786E0FF7D16E38240
:10043000F5F49C4637070F00F18FD98F9CC637071C
:1004400004501C5B93F717FC93E7870249B7370703
:1004500002505C4F93E787005CCFB78701509C4FF9
:10046000544F93F7C73FDD9A54CF5841B706FDFF6D
:10047000F116799B759B58C11845419B18C51849C1
:10048000758F18C918451367570018C55845136765
:10049000370058C51307C035638BE7001307403694
:1004A000638BE7005C4193E717005CC182801C4DC1
:1004B000F99B1CCDC5BF1C4D93E71700DDBF3787E7
:1004C00000501C4FA18BF5FF23280702B78700506F
:1004D00013576500D8D31375F50388D713070006A3
:1004E000D8D71307103098DB8280378700501C4F15
:1004F00093F60702EDFE93F7070491C31C43B787F9
:10050000005088C38280378700501C4FA18BF5FFB5
:100510008280378700501C4FC18BF5FF084352057E
:100520005181828085674145B7860050FD17984EFE
:10053000418B75FF98427D8F01E77D156DF98280B3
:1005400005458280856601458147378600501388BE
:10055000F6FF9165184E418B75FF18422181337764
:100560000701D98F93F707F06207B697598DE3E338
:10057000B7FE13D787003D8B11C37D5582807971FB
:1005800022D4370402505C4C4AD04ECE52CC06D610
:1005900026D256CA5AC85EC662C466C293E727000E
:1005A000939717295CCC1C5437850850856993971D
:1005B00087291CD4693D5C4C0569938949A09397B0
:1005C00017491309A92A5CCC130A90050564CE8447
:1005D000130444A02285E5352D3F4904A13711C1FC
:1005E000A284B307944063002403E375FAFE05690F
:1005F00013099929636B89002285D135193F1D376D
:1006000009E54904C5BFE373FAFC269405802285F9
:100610007D35C144FD14F53DF5FC89679387075886
:100620003304F402370A40003549130AFAFB930AEF
:100630009005370B00F0B70B0050935C8900639B6B
:100640000C10930720046304F90663EE270163028C
:100650000908B5476305F90413093006130550046A
:1006600069354A8599A0930720056308F90C63064C
:1006700059019307C004E311F9FEE935AA84D9357D
:10068000FD57AA896388F40C6306F50C4A85B13DD1
:10069000A6990D4C63E234051305B00439A0354525
:1006A000A935294599351305E00381351DA0593D2C
:1006B000FD576301F50A130920064DD1B354A40276
:1006C000938704FCE36CFAF813052004393D268572
:1006D000FD3381352A8995B763155903B3F7640152
:1006E000639E770193F7E4FFF59B884393F734000B
:1006F0008E073355F500D53B850469BF03C504005B
:10070000DDBF013D93578500B1E7B3F76401639105
:10071000770393DC8C00620593F73400B36C95018A
:10072000E39C87FD93F7E4FFF59B23A09701E9B7CE
:100730001375F50F2380A400C1B72935FD57AA848E
:10074000630AF500130520054D33753B6D32268590
:10075000D53A41B71309900611B79307000C631BF4
:10076000F500930700FC73B0573093F505FC73A0B8
:100770005530828009E9930700FC73B0570093F568
:0807800005FC73A05500828006
:0400000320000000D9
:00000001FF
